:100000000C94F7000C9414010C9414010C9414013A
:100010000C9414010C9414010C9414010C9414010C
:100020000C9414010C9414010C94A9040C94E40491
:100030000C9414010C9414010C9414010C941401EC
:100040000C9414010C9414010C9414010C941401DC
:100050000C9414010C9414010C9414010C941401CC
:100060000C9414010C9414010C9414010C941401BC
:100070000C9414010C9414010C9414010C941401AC
:100080000C9414010C9414010C9414010C9414019C
:100090000C9414010C9414010C9414010C9414018C
:1000A0000C9414010C9414010C94140146044304A0
:1000B00040043D043A043704340431042E042B0474
:1000C0002804250422041F041C0419041604130424
:1000D00010040D040A04070404040104FE03FB03D6
:1000E000F803F503F203EF03EC03E903E603E3038C
:1000F000E003DD03DA03D703D403D103CE03CB033C
:10010000C803C503C203BF03BC03B903B603B303EB
:10011000B003AD03AA03A703A403A1039E039B039B
:100120009803950392038F038C03890386030A00C7
:100130000A4A6F696E743A20000A00000100006FDD
:1001400001120002000081014300030000C4010409
:1001500001030904C8011202030904DC01060303B8
:100160000904E401080001C1120180360181361240
:1001700001000202000010C0167A0400010102030F
:100180000109024300020100C0320904000001021B
:1001900002010005240010010524010101042402CC
:1001A000060524060001070582031000400904012A
:1001B00000020A0000000705030240000007058452
:1001C000024000000403090412034A002E0020002C
:1001D0004600690065006E006500000006034D00E2
:1001E0003200000008033400310030000000112408
:1001F0001FBECFEFDAE0DEBFCDBF11E0A0E0B1E07F
:10020000E2E8F4E102C005900D92A830B107D9F7F9
:1002100021E0A8E0B1E001C01D92AC30B207E1F7E7
:100220000E9465070C943F0A0C940000ECE7F0E094
:1002300080818F778083808180648083EAE7F0E02B
:1002400080818460808380818260808380818160FE
:100250008083808180628083089520917A002F7B43
:1002600020937A0021E020937C0088309105FCF4F3
:1002700090917E0021E030E0082E01C0220F0A9408
:10028000EAF7922B90937E0090917B009F7D909354
:100290007B00805C80937C0080917A0080688093F2
:1002A0007A0080917A00806480937A00089560914A
:1002B0007D00AC014850510921E030E0042E01C01E
:1002C000220F0A94EAF7622B60937D0090917B00E5
:1002D000906290937B00885CDDCF80917A0084FFF0
:1002E000FCCF80917A00806180937A0080917800C1
:1002F000909179000895CF93DF93EC0189E391E029
:100300000E944F06CE01DF91CF910C94F8060F9317
:100310001F93CF93DF9300D000D0CDB7DEB78C0111
:1003200080E391E049835A836B837C830E944F066C
:10033000C8010E94F80680E20E94D60249815A81D3
:100340006B817C81CB01BA010E949008CB010F9098
:100350000F900F900F90DF91CF911F910F910C9400
:10036000F806BC01882777FD8095982F0E94BE086B
:1003700020E030EC4FE754E40E94230820E030E016
:1003800046E953E40E944A090895E1E8F0E08081DB
:100390008B7F808380818260808380818160808385
:1003A000808180618083808188608083E0E8F0E0E4
:1003B00080818260808380818E7F80830895259AEA
:1003C000269AE0E8F0E020812068208320812F7BBE
:1003D000208320812062208320812F7E208328E8B3
:1003E00033E1309387002093860090938B008093B5
:1003F0008A00709389006093880008955A9A08953E
:100400005A980895599A0895599808952C9A0895DC
:100410002C9808952F9A08952F980895CF92DF92DF
:10042000EF92FF920F931F93CF93DF938C01EB0119
:10043000BC01660F771F660F771F882777FD8095B1
:10044000982F0E94BE086B017C01BE01600F711FD6
:10045000882777FD8095982F0E94BE082FE832EC00
:1004600045EF5CE30E944A099B01AC01C701B6015C
:100470000E94BF070E948B08CB01DF91CF911F9193
:100480000F91FF90EF90DF90CF9008950F931F93FF
:10049000CF93DF938C01EB01063F8FEF18072CF40D
:1004A0000E94FE010E94040207C00B30110524F0D7
:1004B0000E9400020E940202C63F8FEFD8072CF470
:1004C0000E9406020E940C0207C0CB30D10524F026
:1004D0000E9408020E940A02BE01D7FF03C0719564
:1004E00061957109C80117FF03C091958195910924
:1004F000DF91CF911F910F910C94DF0181E08093E8
:10050000D70080EA8093D80082E189BD09B400FE5B
:10051000FDCF80E98093D8001092E000109208018E
:10052000109209018CE08093E20078940895809104
:10053000080108959FB7F89480910801882339F045
:1005400083E08093E9008091E80085FD03C09FBFB0
:100550008FEF08952091F1008091E80085FD03C0A0
:100560008BE68093E8009FBF822F08959FB7F89491
:1005700080910801882329F083E08093E90080912D
:10058000F2009FBF089580910801882371F09FB702
:10059000F89483E08093E9002BE602C02093E80002
:1005A0008091E80085FDFACF9FBF0895482F809184
:1005B00008018823D9F12FB7F89484E08093E900EB
:1005C00080910B01882341F08091E80085FD02C0F5
:1005D0002FBF12C010920B019091E400975E34E09F
:1005E0008091E80085FD13C02FBF8091E40089173A
:1005F00029F481E080930B018FEF08958091080129
:100600008823A1F02FB7F8943093E900E9CF409305
:10061000F1008091E80085FD03C08AE38093E80043
:1006200085E080930A012FBF80E008958FEF089541
:10063000282F80910801882351F09FB7F89484E017
:100640008093E9008091E80085FD03C09FBF8FEF94
:1006500008952093F1008091E80085FD03C08AE3AE
:100660008093E80085E080930A019FBF80E00895B1
:10067000CF93DF93EC0180910801882309F41CC11A
:100680003FB7F89484E08093E90080910B018823C0
:1006900009F407C18091E80085FD02C03FBF0CC18D
:1006A00010920B01FEC09091E400975E8091E800EB
:1006B00085FD13C03FBF8091E400891721F481E0DC
:1006C00080930B01F9C080910801882309F4F4C0DC
:1006D0003FB7F8945093E900E9CF8091F2002A2FB8
:1006E000281B822F90E06817790708F4262F822FA5
:1006F00090E08134910508F0C6C08A5A9F4FFC01F2
:10070000EE0FFF1F0590F491E02D099489918093DD
:10071000F10089918093F10089918093F100899192
:100720008093F10089918093F10089918093F10089
:1007300089918093F10089918093F1008991809350
:10074000F10089918093F10089918093F100899162
:100750008093F10089918093F10089918093F10059
:1007600089918093F10089918093F1008991809320
:10077000F10089918093F10089918093F100899132
:100780008093F10089918093F10089918093F10029
:1007900089918093F10089918093F10089918093F0
:1007A000F10089918093F10089918093F100899102
:1007B0008093F10089918093F10089918093F100F9
:1007C00089918093F10089918093F10089918093C0
:1007D000F10089918093F10089918093F1008991D2
:1007E0008093F10089918093F10089918093F100C9
:1007F00089918093F10089918093F1008991809390
:10080000F10089918093F10089918093F1008991A1
:100810008093F10089918093F10089918093F10098
:1008200089918093F10089918093F100899180935F
:10083000F10089918093F10089918093F100899171
:100840008093F10089918093F10089918093F10068
:1008500089918093F10089918093F100899180932F
:10086000F10089918093F10089918093F100899141
:100870008093F10089918093F10089918093F10038
:1008800089918093F10089918093F1008091E80033
:1008900085FD02C0B093E800621B710940930A0114
:1008A00004C054E0A0E4BAE345E06115710509F025
:1008B000FACE3FBF80E001C08FEFDF91CF91089566
:1008C0009FB7F89480910A01882341F084E08093D7
:1008D000E9008AE38093E80010920A019FBF08951F
:1008E0008091040108958091050108958091060189
:1008F0000895809109010895382F9FB7F894809149
:100900000801882339F022E02093E9008091E80073
:1009100085FD03C09FBF8FEF089581EA8093F100AA
:1009200080E28093F1001092F1001092F100109299
:10093000F1001092F1002093F1001092F100309339
:10094000F1001092F1008AE38093E8009FBF80E0FD
:1009500008951F920F920FB60F9211248F939F93B9
:100960008091E1001092E100982F83FF11C0109256
:10097000E90081E08093EB001092EC0082E180932B
:10098000ED0088E08093F0001092080110920901B8
:1009900092FF13C080910801882379F080910A01A9
:1009A000882359F0815080930A01882331F484E030
:1009B0008093E9008AE38093E8009F918F910F90E4
:1009C0000FBE0F901F9018951F920F920FB60F92A7
:1009D00011240F931F932F933F934F935F936F9324
:1009E0007F938F939F93AF93BF93EF93FF93109257
:1009F000E9008091E80083FF3CC14091F100309113
:100A0000F1008091F100682F70E02091F100922FA9
:100A100080E0682B792B8091F100A82FB0E0209125
:100A2000F100922F80E0A82BB92B1091F1000091DA
:100A3000F10082EF8093E800363009F05AC022E4DA
:100A400031E0A90145505040F901379785919491C3
:100A50008617970701F5FA01859194918A179B07EC
:100A6000D1F49A012E5F3F4FF901659174912E5F89
:100A70003F4FF9014491212F30E0902F80E0282B47
:100A8000392B2F3F310519F010F02FEF30E02417EC
:100A900058F4422F09C0295F3F4F495F5F4FF1E093
:100AA0002C363F0789F6E5C05EEF8091E800282FDD
:100AB00030E0C90185709070892BB9F322FDDCC04C
:100AC000342F413108F030E1232FCB0106C0FC0167
:100AD0000196E491E093F10021502223C1F7630FC6
:100AE000711D431B5093E8004423F9F63031E9F2BD
:100AF000C3C0353061F48EEF8093E8008091E80048
:100B000080FFFCCF862F80688093E300B5C039302A
:100B100051F5442309F0ADC060930801109209011A
:100B200010920A018EEF8093E80085E691E021E0C3
:100B30002093E900FC010196E491E093EB00EE23A1
:100B400069F0AC014F5F5F4FFC0184918093EC0032
:100B5000CA010196FA0134913093ED002F5F2530E0
:100B600039F78EE181C0383061F4403809F081C036
:100B70008091E80080FFFCCF809108018093F10014
:100B800050C0313289F4413A09F073C08091E800D5
:100B900080FFFCCFE0E0F1E081918093F10081E003
:100BA000E730F807C9F73DC03032A1F4413209F00F
:100BB00060C08091E80082FFFCCFE0E0F1E080912E
:100BC000F100819381E0E730F807C9F78BEF80935C
:100BD000E80027C0323251F4413209F04AC0609334
:100BE00009018091E80080FFFCCF1BC03323E9F4AA
:100BF0008091E80080FFFCCF423811F080E00DC00A
:100C0000A093E9008091EB0090E025E09695879510
:100C10002A95E1F781701092E9008093F10010921B
:100C2000F1008EEF8093E80027C0313011F03330AF
:100C300001F54230F1F4672BE1F42A2F2F77822F50
:100C400081508430B0F48EEF8093E8002093E90067
:100C5000333079F089E18093EB0081E090E002C0CD
:100C6000880F991F2A95E2F78093EA001092EA0014
:100C700003C081E28093EB00FF91EF91BF91AF91B0
:100C80009F918F917F916F915F914F913F912F91A4
:100C90001F910F910F900FBE0F901F9018951F93EB
:100CA000CF93DF93EC01FE0121961491112349F0BB
:100CB0001A3019F48DE00E94D602812F0E94D602CC
:100CC000F2CFDF91CF911F910895982F8A3010F0C5
:100CD00087E301C080E3890F0E94D60208951F9325
:100CE000182F82958F700E946506812F8F700E9449
:100CF00065061F9108951F93182F892F0E946F0674
:100D0000812F0E946F061F9108950E946F0608951B
:100D1000EF92FF920F931F93DF93CF93CDB7DEB780
:100D20002B970FB6F894DEBF0FBECDBF8E010F5FBD
:100D30001F4F2BE0F80111922A95E9F7A8012AE04C
:100D400030E00E94DD093BE0E32EF12CEC0EFD1EAD
:100D5000F8018081882311F00E94D6020F5F1F4F97
:100D60000E151F05A9F72B960FB6F894DEBF0FBE20
:100D7000CDBFCF91DF911F910F91FF90EF9008951C
:100D8000EF92FF920F931F93DF93CF93CDB7DEB710
:100D90002B970FB6F894DEBF0FBECDBF8E010F5F4D
:100DA0001F4F2BE0F80111922A95E9F7A8012AE0DC
:100DB00030E00E94C3094CE0E42EF12CEC0EFD1E45
:100DC000F8018081882311F00E94D6020F5F1F4F27
:100DD0000E151F05A9F72B960FB6F894DEBF0FBEB0
:100DE000CDBFCF91DF911F910F91FF90EF900895AC
:100DF000EF92FF920F931F93DF93CF9300D000D019
:100E000000D0CDB7DEB78E010F5F1F4F26E0F8018F
:100E100011922A95E9F7B8014AE050E00E940A0AC7
:100E200056E0E52EF12CEC0EFD1EF80180818823A2
:100E300011F00E94D6020F5F1F4F0E151F05A9F774
:100E400026960FB6F894DEBF0FBECDBFCF91DF91CF
:100E50001F910F91FF90EF900895EF92FF920F93E3
:100E60001F93DF93CF93CDB7DEB727970FB6F894D4
:100E7000DEBF0FBECDBF8E010F5F1F4F27E0F80111
:100E800011922A95E9F7B8014AE050E00E94AD09B5
:100E900068E0E62EF12CEC0EFD1EF801808188231F
:100EA00011F00E94D6020F5F1F4F0E151F05A9F704
:100EB00027960FB6F894DEBF0FBECDBFCF91DF915E
:100EC0001F910F91FF90EF9008950E947E020E9463
:100ED00097028823E1F380E880936100109261001B
:100EE0000E9416010E94C501519A529A249A279A8B
:100EF000EE24EA9493E0F92E80E090E00E942D0128
:100F00000E946D016C0181E090E00E942D010E9421
:100F10006D015C0186E090E00E942D010E946D0150
:100F2000EC0187E090E00E942D010E946D018C0190
:100F300060E070E0C5018C1B9D0B0E940E02EC016D
:100F4000C7018C199D0960E070E09801281B390BDE
:100F5000C9010E940E028C01CE010E942D0780E281
:100F60000E94D602C8010E942D078EE291E00E94E5
:100F70004F06B801CE010E944602BECF5058BB2793
:100F8000AA270ED04DC13ED130F043D120F031F42C
:100F90009F3F11F41EF433C10EF4E095E7FB29C125
:100FA000E92F4FD180F3BA176207730784079507BB
:100FB00018F071F49EF567C10EF4E0950B2EBA2F70
:100FC000A02D0B01B90190010C01CA01A00111244F
:100FD000FF27591B99F0593F50F4503E68F11A16FB
:100FE000F040A22F232F342F4427585FF3CF46958C
:100FF00037952795A795F0405395C9F77EF41F16AE
:10100000BA0B620B730B840BBAF09150A1F0FF0F77
:10101000BB1F661F771F881FC2F70EC0BA0F621F63
:10102000731F841F48F4879577956795B795F79553
:101030009E3F08F0B3CF9395880F08F09927EE0FE5
:101040009795879508950CD0EBC0E3D040F0DAD0A7
:1010500030F021F45F3F19F0CCC0511115C1CFC061
:10106000F0D098F39923C9F35523B1F3951B550B91
:10107000BB27AA2762177307840738F09F5F5F4F6B
:10108000220F331F441FAA1FA9F333D00E2E3AF0AC
:10109000E0E830D091505040E695001CCAF729D0C6
:1010A000FE2F27D0660F771F881FBB1F2617370715
:1010B0004807AB07B0E809F0BB0B802DBF01FF2745
:1010C00093585F4F2AF09E3F510568F092C0DCC0F4
:1010D0005F3FECF3983EDCF3869577956795B7957F
:1010E000F7959F5FC9F7880F911D9695879597F99A
:1010F0000895E1E0660F771F881FBB1F6217730713
:101100008407BA0720F0621B730B840BBA0BEE1F27
:1011100088F7E095089504D06894B111B5C008959A
:1011200098D088F09F5790F0B92F9927B751A0F029
:10113000D1F0660F771F881F991F1AF0BA95C9F76B
:1011400012C0B13081F09FD0B1E008959CC0672FEC
:10115000782F8827B85F39F0B93FCCF3869577951B
:101160006795B395D9F73EF4909580957095619504
:101170007F4F8F4F9F4F0895E89409C097FB3EF42F
:1011800090958095709561957F4F8F4F9F4F9923D4
:10119000A9F0F92F96E9BB279395F6958795779552
:1011A0006795B795F111F8CFFAF4BB0F11F460FF12
:1011B0001BC06F5F7F4F8F4F9F4F16C0882311F06A
:1011C00096E911C0772321F09EE8872F762F05C07E
:1011D000662371F096E8862F70E060E02AF09A9519
:1011E000660F771F881FDAF7880F9695879597F90E
:1011F000089597F99F6780E870E060E008959FEF99
:1012000080EC089500240A9416161706180609069D
:10121000089500240A94121613061406050608956C
:10122000092E0394000C11F4882352F0BB0F40F4F4
:10123000BF2B11F460FF04C06F5F7F4F8F4F9F4F34
:10124000089557FD9058440F551F59F05F3F71F0B6
:101250004795880F97FB991F61F09F3F79F087951D
:101260000895121613061406551FF2CF4695F1DFA6
:1012700008C0161617061806991FF1CF8695710536
:10128000610508940895E894BB2766277727CB016A
:1012900097F908950BD0C4CFB5DF28F0BADF18F066
:1012A000952309F0A6CFABCF1124EECFCADFA0F370
:1012B000959FD1F3950F50E0551F629FF001729FEB
:1012C000BB27F00DB11D639FAA27F00DB11DAA1F0A
:1012D000649F6627B00DA11D661F829F2227B00D57
:1012E000A11D621F739FB00DA11D621F839FA00DE2
:1012F000611D221F749F3327A00D611D231F849F32
:10130000600D211D822F762F6A2F11249F57504088
:101310008AF0E1F088234AF0EE0FFF1FBB1F661F23
:10132000771F881F91505040A9F79E3F510570F0DC
:1013300060CFAACF5F3FECF3983EDCF386957795BC
:101340006795B795F795E7959F5FC1F7FE2B880FD7
:10135000911D9695879597F908954532510520F48A
:10136000423010F00C94B809FB011082CB010895B3
:10137000BB274A3031F4992322F4BDE29095819540
:101380009F4F0C94160A2532310520F4223010F0BC
:101390000C94CE09FA011082CA010895BB272A30A5
:1013A00051F4992342F4BDE2909580957095619532
:1013B0007F4F8F4F9F4F0C94E9092532310520F460
:1013C000223010F00C94E809FA011082CA01089545
:1013D000BB27FA01A62F6217710581059105330B12
:1013E00030FB66F0AA27660F771F881F991FAA1F78
:1013F000A21710F0A21B63953850A9F7A05DAA337D
:1014000008F0A95DA19336F7B111B1931082CA011A
:101410000C942F0A4532510520F4423010F00C9400
:10142000150AFB011082CB010895BB27FB0155274C
:10143000AA27880F991FAA1FA41710F0A41B839531
:101440005051B9F7A05DAA3308F0A95DA1930097A8
:1014500079F7B111B1931192CB010C942F0ADC01F1
:10146000FC01672F71917723E1F7329704C07C91DB
:101470006D9370836291AE17BF07C8F30895F89417
:02148000FFCF9C
:0814820000E100000000080079
:00000001FF
